:1000000045C0000060C000005EC000005CC0000091
:100010005AC0000058C0000056C0000054C0000084
:1000200052C0000050C000004EC000004CC0000094
:100030004AC0000048C0000046C0000044C00000A4
:1000400042C0000040C000003EC000003CC00000B4
:100050003AC0000038C0000036C0000034C00000C4
:1000600032C0000030C000002EC000002CC00000D4
:100070002AC0000028C0000026C0000024C00000E4
:1000800022C0000020C000001EC0000011241FBEBE
:10009000CFEFD0E1DEBFCDBF12E0A0E0B1E0EEE8EF
:1000A000F7E000E00BBF02C007900D92A031B1074E
:1000B000D9F724E0A0E1B2E001C01D92A030B20760
:1000C000E1F750D362C39CCF2F923F924F925F9241
:1000D0006F927F928F929F92AF92BF92CF92DF9258
:1000E000EF92FF920F931F93CF93DF93EC01288041
:1000F00039804A805B806C807D808E809F80EB01A0
:10010000FA01C101D201A301B401112430E1032E8F
:10011000A8802A24A9803A24AA804A24AB805A24A1
:10012000AC806A24AD807A24AE808A24AF809A2481
:10013000930136952795282539252575357582260D
:100140009326220F331F6226732691013695279539
:10015000242535252575357542265326220F331F54
:100160002226332692013695279536952795282500
:1001700039252373337382269326220F331F220FD0
:10018000331F42265326910136952795369527959C
:10019000262537252373337362267326220F331FD8
:1001A000220F331F222633265201A624B7246301CF
:1001B000CA20DB207401EC24FD2491012E253F256B
:1001C0006501CE20DF20A226B326C624D7248101D4
:1001D0000C291D2925014026512620943094C22443
:1001E000D32442018C249D24CA28DB2837016C24A7
:1001F0007D241901930136952795369527953695D7
:10020000279536952795282539252F703F7082260A
:100210009326220F331F220F331F220F331F220F6B
:10022000331F6226732691013695279536952795BB
:100230003695279536952795242535252F703F70BF
:1002400042265326220F331F220F331F220F331F44
:10025000220F331F22263326252D342D28258226D2
:100260005226232D322D262562263226A8842A24C2
:10027000A9843A24AA844A24AB845A24AC846A24EC
:10028000AD847A24AE848A24AF849A242082318279
:1002900040A251A2B09660A271A2B09680A291A293
:1002A000B0977E9701964096939530E1930F1C018D
:1002B0002D013A014B010A9401102ACFDF91CF9111
:1002C0001F910F91FF90EF90DF90CF90BF90AF9074
:1002D0009F908F907F906F905F904F903F902F9066
:1002E000112408952F923F924F925F926F927F92C6
:1002F0008F929F92AF92BF92CF92DF92EF92FF9236
:100300000F931F93CF93DF93EC01DB014F935F9328
:10031000F901288039804A805B806C807D808E80E6
:100320009F8041E051016201A40EB11CA882B982F4
:1003300010E29101E22FEF70EE0F208031802295C4
:10034000E22FEF70EE0FE10F40805180E32FEF704E
:10035000EE0FE10FE10F608071803295E32FEF70B7
:10036000EE0FE10FE10FE10F808091805201A62492
:10037000B7246301CA20DB207401EC24FD24910121
:100380002E253F256501CE20DF20A226B326C624D8
:10039000D72481010C291D292501402651262094AE
:1003A0003094C224D32442018C249D24CA28DB2803
:1003B00037016C247D241901509611244EE0AD9034
:1003C0002A24AD903A24AD904A24AD905A24AD90A1
:1003D0006A24AD907A24AD908A24AD909A2493013A
:1003E0003695279528253925257535758226932636
:1003F000220F331F622673269101369527952425F7
:1004000035252575357542265326220F331F2226A2
:100410003326920136952795369527952825392537
:100420002373337382269326220F331F220F331F29
:1004300042265326910136952795369527952625F0
:1004400037252373337362267326220F331F220F3F
:10045000331F222633265201A624B7246301CA2063
:10046000DB207401EC24FD2491012E253F2565013C
:10047000CE20DF20A226B326C624D72481010C2952
:100480001D2925014026512620943094C224D324CE
:1004900042018C249D24CA28DB2837016C247D244A
:1004A0001901930136952795369527953695279509
:1004B00036952795282539252F703F70822693265B
:1004C000220F331F220F331F220F331F220F331F20
:1004D0006226732691013695279536952795369590
:1004E000279536952795242535252F703F70422670
:1004F0005326220F331F220F331F220F331F220FC9
:10050000331F22263326252D342D282582265226D8
:10051000232D322D262562263226AD902A24AD9039
:100520003A24AD904A24AD905A24AD906A24AD90FF
:100530007A24AD908A24AD909A245201A624B7243F
:100540006301CA20DB207401EC24FD2491012E25D7
:100550003F256501CE20DF20A226B326C624D7245E
:1005600081010C291D292501402651262094309413
:10057000C224D32442018C249D24CA28DB283701BD
:100580006C247D2419014A95411119CFAD902A247C
:10059000AD903A24AD904A24AD905A24AD906A248F
:1005A000AD907A24AD908A24AD909A24930136952B
:1005B000279536952795369527953695279528259D
:1005C00039252F703F7082269326220F331F220F6A
:1005D000331F220F331F220F331F62267326910110
:1005E00036952795369527953695279536952795EF
:1005F000242535252F703F7042265326220F331FA6
:10060000220F331F220F331F220F331F22263326C0
:10061000252D342D282582265226232D322D2625C0
:10062000622632269301369527952825392525758A
:10063000357582269326220F331F62267326910179
:10064000369527952425352525753575422653265B
:10065000220F331F22263326920136952795369591
:100660002795282539252373337382269326220F55
:10067000331F220F331F42265326910136952795AB
:1006800036952795262537252373337362267326DF
:10069000220F331F220F331F222633265201A62496
:1006A000B7246301CA20DB207401EC24FD249101EE
:1006B0002E253F256501CE20DF20A226B326C624A5
:1006C000D72481010C291D2925014026512620947B
:1006D0003094C224D32442018C249D24CA28DB28D0
:1006E00037016C247D241901AD902A24AD903A2461
:1006F000AD904A24AD905A24AD906A24AD907A24EE
:10070000AD908A24AD909A24FF91EF91A0802A2485
:10071000A1803A24A2804A24A3805A24A4806A2477
:10072000A5807A24A6808A24A7809A2420823182F8
:10073000428253826482758286829782DF91CF9152
:100740001F910F91FF90EF90DF90CF90BF90AF90EF
:100750009F908F907F906F905F904F903F902F90E1
:100760001124089540E053E060E171E088E091E0F9
:10077000ABDC20E033E048E051E060E171E080E094
:0E07800091E0B0DD80E090E00895F894FFCFA6
:10078E000000123456789ABC0000123456789ABC87
:10079E00FFFFFFFFFFFFFFFFFF3FFFFFFF3FFF3F9B
:1007AE00FFFFFFFFFFFFFF2DFF9FFF1FFF4FFF3FCD
:1007BE00FEFFFFFFFFFFB719FEA7FF9FFFE7FF0733
:1007CE00FEFFFFFFFFDF6679FE73FF43FFE9FF27A2
:1007DE00FDFFFFFF7F9BE540FF74FE53FF5CFF9024
:1007EE00FDFFFFFF6D9603807FEE7E883F9DFF9499
:1007FE00FCFFFFB7590E00FA9E0E7ECA9FBB1FA2CA
:10080E00FCFFDF663900E8EDCE9D0ED1A7039F32C7
:10081E00FB7F9BE500A0B73DD3814F1972E743B430
:10082E00FB6D960380DEF6D9B93321DA7520538637
:10083E00B2590E007ADB671D3B502903EF0C883648
:10084E00633900E86D9F7514764644DB0F14CA8039
:10085E00E300A0B77DD651EC078A64409CD1D1B697
:10086E000580DEF65947B16BCEE869DB80A219D060
:10087E00077ADB671DC5AE0041D10D68323ADA76D4
:10088E00EF6D9F7514BB02A98C322506A3B56F2C94
:00000001FF
